:020000040800F2
:10000000380700209D0100081B210008611E000820
:1000100019210008B1090008D525000800000000DA
:10002000000000000000000000000000B9220008ED
:100030000D0A0008000000001D210008D32200085E
:10004000B7010008B7010008B7010008B7010008B0
:10005000B70100081F210008B7010008B701000818
:10006000B7010008B7010008B7010008B701000890
:10007000B7010008B7010008B7010008B701000880
:10008000B7010008B7010008B7010008B701000870
:10009000B7010008B7010008B7010008B701000860
:1000A000B7010008B7010008B7010008B701000850
:1000B000B7010008B7010008B7010008B701000840
:1000C000B7010008B7010008B7010008B701000830
:1000D000B7010008B7010008B7010008C9250008EA
:1000E000B7010008B7010008B7010008B701000810
:1000F000B7010008B7010008B7010008B701000800
:10010000B7010008B7010008B7010008B7010008EF
:10011000B7010008B7010008B7010008B7010008DF
:10012000B7010008B7010008B7010008B7010008CF
:10013000B7010008B7010008B7010008B7010008BF
:10014000B7010008B7010008B7010008B7010008AF
:10015000B7010008B7010008B7010008B70100089F
:10016000B7010008B7010008B7010008B70100088F
:10017000B7010008B7010008B7010008000000003F
:10018000B7010008B7010008DFF80CD000F032FB1F
:1001900000480047992F000838070020064880478C
:1001A00006480047FEE7FEE7FEE7FEE7FEE7FEE75C
:1001B000FEE7FEE7FEE7FEE75D2300088901000891
:1001C0002DE9F05F0546002092469B46884606468C
:1001D000814640241BE0284641464746224600F01F
:1001E0001EF953465A46C01A914110D3114618467B
:1001F000224600F005F92D1A67EB01084F4622460A
:100200000120002100F0FCF817EB00094E41201EF0
:10021000A4F10104DFDC484631462A464346BDE8E6
:10022000F09F40EA01039B0703D009E008C9121FB1
:1002300008C0042AFAD203E011F8013B00F8013BA0
:10024000521EF9D27047D2B201E000F8012B491ECC
:10025000FBD270470022F6E710B513460A46044663
:100260001946FFF7F0FF204610BD421C10F8011B95
:100270000029FBD1801A70472DE9FE4F81EA030463
:1002800004F0004421F0004100944FF0000B23F0F3
:10029000004350EA01045ED052EA03045BD0C3F38A
:1002A0000A54C1F30A552C44A4F2F3340194A0FB80
:1002B0000254C1F3130141F48011C3F3130343F457
:1002C000801301FB024400FB034E840A970A44EAB0
:1002D000815447EA8357A4FB076802958D0A05FB02
:1002E00007854FEA932C04FB0C542705029D4FEA27
:1002F000065847EA1637B5EB08056EEB070C870E74
:10030000920E47EA811742EA8312A7FB0201B6EB7D
:100310000B0164EB00042B0D43EA0C335E1844EB35
:100320001C50DA465146E7FB0201C5F313044FEABD
:100330000B3343EA14534FEA0432019C43EA0603A9
:10034000A4F10C040294009CCDE900B400F0BDF8C7
:1003500003B0BDE8F08F00200146F9E70EB540F28A
:10036000334102910021CDE900110A460B4600F00D
:10037000ACF803B000BD00F0004230F000400AD0FD
:10038000C10D01F56071C0F3160042EA0151C208C7
:1003900040071143704700200146704701F00043B9
:1003A00030B421F0004150EA010206D00A0DA2F556
:1003B0006072C1F31301002A02DC30BC00207047D8
:1003C000440F44EAC104C100E01830BC00EBC25045
:1003D00000F035B830B50B4601460020202201243C
:1003E00009E021FA02F59D4205D303FA02F5491B03
:1003F00004FA02F52844151EA2F10102F1DC30BD19
:10040000202A04DB203A00FA02F1002070479140D4
:10041000C2F1200320FA03F3194390407047202AC9
:1004200004DB203A21FA02F00021704721FA02F39E
:10043000D040C2F12002914008431946704700297C
:10044000A8BF7047401C490008BF20F0010070475A
:1004500010B4B0FA80FC00FA0CF050EA010404BFBA
:1004600010BC704749B1CCF1200421FA04F411FA10
:100470000CF118BF012121430843A3EB0C01CB1D54
:100480004FEA00614FEA102042BF002010BC7047C5
:1004900000EBC35010440029A4BF10BC7047401C9F
:1004A000490008BF20F0010010BC704710B5141EB1
:1004B00073F1000408DA401C41F1000192185B411D
:1004C0001A4301D120F0010010BD2DE9F04D9246F4
:1004D0009B4611B1B1FA81F202E0B0FA80F220320B
:1004E0009046FFF78DFF04460F4640EA0A0041EAB6
:1004F0000B0153465A46084313D0114653EA0100F4
:1005000019D0C8F140025046FFF789FF05460E4654
:10051000504659464246FFF773FF084305D0012075
:1005200004E020463946BDE8F08D0020054346EA48
:10053000E0762C4337430A986305E40AA0EB0800F1
:100540000022FD0A44EA47540A3002D50020014641
:10055000E9E7010510196941DDE90845001969411C
:10056000BDE8F04DA2E72DE9FE4F804681EA030089
:10057000C00F0C46009021F0004123F00045B8EB7D
:100580000200A94105D24046214690461C460B4632
:10059000024623F00040104347D0270DC7F30A005E
:1005A000C3F30A510290401A019040286BDAC3F35A
:1005B000130040F4801B0098924620B10023D2EB38
:1005C000030A63EB0B0B01985946C0F140025046F9
:1005D000FFF716FF06460D4650465946019A00F0B1
:1005E0001BF910EB08006141002487EA115284EAEC
:1005F000E7731A4340D0009A62B3019A012A4FEA86
:10060000075215DC001B61EB02014FF0004202EAC9
:100610000752CDE90042001C41F5801132462B46BD
:10062000FFF753FF03B0BDE8F08F40462146F9E7DE
:10063000001B61EB0201001C41F5801300185B41B7
:100640002018A2F5001747EB030140EAD570B61950
:100650006D4111E06D084FEA360645EAC0754FEA74
:100660000752001B61EB0201001C41F58011490893
:100670004FEA30000019514132462B4603B0BDE825
:10068000F04FFFF713BF0098012240000023D0EB8A
:10069000020263EBE073009821464FEAE074B8EB86
:1006A000000061EB0401E9E783F000435BE781F0C0
:1006B000004158E72DE9F04D81EA030404F0004BB6
:1006C00021F0004514464FF0000A23F0004150EAA3
:1006D000050220D054EA01021DD0C5F30A57024694
:1006E000C5F31303C1F31300C1F30A5640F4801598
:1006F00043F48013A7EB0608101BD64608F2FD381A
:1007000073EB050002D308F1010801E092185B4188
:10071000B8F1000F03DA00200146BDE8F08D00209B
:100720004FF48011064684460EE0171B73EB050755
:1007300005D3121B63EB050306434CEA010C490881
:100740004FEA300092185B4150EA0107EDD152EABE
:10075000030012D082EA040083EA0501084305D0B1
:10076000101BAB4106D20122002306E000224FF00D
:10077000004302E06FF0010253101AEB06004CEB4D
:10078000085110EB0A0041EB0B01BDE8F04DFFF7FB
:100790008DBEC1F30A52C1F3130140F2FF3341F49D
:1007A00080119A4202DA00200146704740F233433A
:1007B0009A42A2F2334202DC5242FFF730BEFFF708
:1007C0001FBE000030B5041E71F1000404DB4FF0C1
:1007D0000044404264EB0101141E73F1000405DB88
:1007E0001C464FF00043524263EB0403994208BF9A
:1007F000904230BD064C074D06E0E06840F0010332
:1008000094E8070098471034AC42F6D3FFF7C0FCD9
:10081000E831000808320008202A06DBCB17203A0E
:1008200041FA02F043EAE07306E041FA02F3D040F5
:10083000C2F120029140084319467047464910B55D
:100840004A6822F440324A604A6843681A434A6060
:1008500001684A6822F480724A6001684A68036944
:1008600042EA03224A6001684A6822F040724A6004
:1008700001684A6883681A434A6001688A6822F4FA
:1008800000628A6001688A68C3681A438A60816A64
:100890006FF07062D14201688A6822F070628A60EB
:1008A00001688A680CD0836A1A438A6001688A6882
:1008B00022F040528A6001688A68C36A1A4301E0E4
:1008C00022F040528A6001688A6822F002028A603F
:1008D00001688A68037E42EA43028A6090F8201029
:1008E000002901684A680FD042F400624A6001683A
:1008F0004A6822F460424A6001684A68174C436AB9
:1009000004EB43331A4301E022F400624A600168B9
:10091000CA6A22F47002CA620168CA6A838B104CE8
:1009200004EB03531A43CA6201688A6822F4007216
:100930008A6001688A6890F8303042EA43228A600F
:1009400001688A6822F480628A6001688A68406966
:1009500042EA8020886010BD0023014000E0FFFFD4
:100960000000F0FF10B50C4800F0A8F905210A4876
:1009700000F052F9084800F0F1F8084CA060FFF7C9
:10098000EDFC9FED071B53EC112BFFF775FCFFF7F8
:1009900005FDE06010BD00005400002000000020B4
:1009A000B81E85EB51B8AE3F0321142001F085BC81
:1009B000FEE770B50C46054601F0B2FB20EA0401E3
:1009C0002846BDE8704001F007BE000031B50C4874
:1009D00081B0002201680B4B0B480CE0641E0194AF
:1009E0004260B1FBF3F44FF47A756C4300944468B1
:1009F000009DAC42FBD3019C002CEFD13CBD00001C
:100A00001C00002040420F00001000E07047000072
:100A100078B50024009490F83C20012A19D00122D6
:100A200080F83C200A6807230568092A13D9EE6874
:100A30000A3A02EB420293409E43EE600B788A68CA
:100A40000A3B03EB43039A400368DD682A43DA60FC
:100A500010E0022078BD2E6902EB420293409E43D3
:100A60002E610B788A6803EB43039A4003681D6983
:100A70002A431A614A681F23072A13D205686E6B3E
:100A8000521E02EB820293409E436E630B790A88EA
:100A90005B1E92B203EB83039A4003685D6B2A43AB
:100AA0005A6327E005680D2A12D22E6BD21F02EB83
:100AB000820293409E432E630B790A88DB1F92B219
:100AC00003EB83039A4003681D6B2A431A6311E00A
:100AD000EE6A0D3A02EB820293409E43EE620B797E
:100AE0000A880D3B92B203EB83039A400368DD6AE8
:100AF0002A43DA62164B0568144A9D4206D10D68F6
:100B0000122D03D1556845F48005556005689D4256
:100B100018D10B68102B01D0112B13D1536843F45B
:100B200000035360096810290CD10A490A4A096870
:100B3000B1FBF2F101EB8101490000E0491E009197
:100B40000029FBD180F83C40002078BD0023014003
:100B5000002001401C00002040420F000068C06CD3
:100B6000704770B504004FF0000503D0206C0026DC
:100B700010B107E0012070BD204600F01DF866644A
:100B800084F83C60206CC00610D4206C20F488509F
:100B900040F0020020642046FFF750FE6664206C9F
:100BA00020F0020040F00100206400E0012584F8FC
:100BB0003C60284670BD000010B586B00446142184
:100BC0006846FFF747FB1149206888421CD110484E
:100BD0000021026842F480720260006800F48070B4
:100BE00005900B481438026842F001020260006868
:100BF00000F001000590012000900320CDE90101E3
:100C00006946044800F0F4F806B010BD0020014029
:100C100044380240000002402DE9F04104460068DB
:100C20000D4681684FF0000749050BD58068C00567
:100C300008D5206C40F02000206484F83C7001202E
:100C4000BDE8F08100F0B6F906460FE0681C0DD053
:100C500025B100F0AFF9801BA84207D9206C40F005
:100C60000400206484F83C700320E9E720680068F1
:100C70008007EBD521686FF012000860206C40F40B
:100C8000007020642068816811F0405F13D1217EDC
:100C900089B9C16A11F4700F02D0806840050AD486
:100CA000206C20F480702064206CC00403D4206C7D
:100CB00040F0010020640020C2E7000018B50021C8
:100CC000009190F83C20012A07D0012280F83C20B6
:100CD00002689368DB0702D011E0022018BD936818
:100CE00043F0010393602A4A2A4B1268B2FBF3F2E5
:100CF00002EB420200E0521E0092002AFBD1026881
:100D00009368DB0741D0036C40F20164A34343F4D2
:100D10008073036453685B0505D5036C23F40053AB
:100D200043F480530364036CDB0404D5436C23F069
:100D30000603436400E0416480F83C1016496FF0FC
:100D40002203136049680068CA06144906D0884225
:100D50001BD1816811F0405F13D016E08842F8D0B3
:100D60000F4A904203D1D1F80423D206F1D00D4AA4
:100D700090420AD1D1F8041301F01F011029E8D3E1
:100D800003E0816841F080418160002018BD0000CF
:100D90001C00002040420F000023014000200140C1
:100DA000002101400022014090F83510022903D0B3
:100DB0008021416501207047052180F835100068C9
:100DC000016821F0010101600020704770B5044600
:100DD00000F0F0F80546601C02D004480078044496
:100DE00000F0E8F8401BA042FAD370BD10000020CC
:100DF0002DE9F84F00224FF0010803254FF00F0EA8
:100E00000B6808FA02F42340A3426ED14E68012E0B
:100E100005D0022E03D0112E01D0122E12D18668D9
:100E20004FEA420C05FA0CF7BE43CF6807FA0CF7FD
:100E3000374387604668A6430C79C4F30014944096
:100E400034434460C668570005FA07FC8C6826EAFC
:100E50000C06BC403443C4604C68022C01D0122CF8
:100E600013D1D40800EB8404A346D4F8209054078F
:100E70004FEAD46A0EFA0AF629EA06090E6906FA5A
:100E80000AF646EA0906CBF8206006680C7926EADD
:100E90000C0604F00304BC40344304604C68E400D6
:100EA00065D5364C266846F480462660246822F0D4
:100EB000030604F480440094314C3444A446D4F82E
:100EC00008489607370F0EFA07F6B4432D4EB04286
:100ED00001D1002624E02C4EB04201D101261FE0B2
:100EE0002A4EB04202D102261AE040E0284EB0421B
:100EF00001D1032614E0274EB04201D104260FE0B1
:100F0000254EB04201D105260AE0244EB04201D15F
:100F1000062605E0224EB04201D1072600E0082651
:100F2000BE402643CCF808681E4E34684F689C4388
:100F3000FF0300D51C4334601A4C241D26684F68FB
:100F40009E43BF0300D51E432660164E0836346804
:100F50004F689C43FF0200D51C433460114E0C3691
:100F600034684F689C43BF0200D51C433460521C58
:100F7000102AFFF445AFBDE8F88F00004438024066
:100F8000003001400000024000040240000802401E
:100F9000000C024000100240001402400018024001
:100FA000001C0240003C01400AB181617047090405
:100FB000FBE7000001488068704700001000002037
:100FC0000248816802781144816070471000002057
:100FD0000B4810B5016841F400710160016841F4EB
:100FE00080610160016841F480710160032000F0BC
:100FF00077F8002000F006F800F024F8002010BD7B
:10100000003C024070B50D4D04464FF47A712878CB
:10101000B1FBF0F00A490968B1FBF0F000F0C7FD40
:1010200048B9102C07D200222146501E00F038F893
:1010300000206C6070BD012070BD00001000002019
:101040001C0000200E4808B5016841F48041016091
:10105000006800F4804000900948001F016841F0DA
:10106000805101600068002200F08050009011461D
:10107000052000F015F8BDE80840052000F002B892
:1010800044380240002809DB00F01F020121914092
:101090004009800000F1E020C0F800117047000016
:1010A000F0B40E4B1B680C46C3F30223C3F10705D3
:1010B000042D00D90425191D072901D2002300E0C1
:1010C000DB1E012606FA05F1491E214099409E408B
:1010D000761E16403143F0BC01F0B8BA0CED00E0CA
:1010E000064900F0070208684FF6FF03184040EA7F
:1010F0000220034A10430860704700000CED00E036
:101100000000FA052DE9F0470E46050065D0DFF82E
:101110001481D8F80000F7B200F00F00B04207D2F7
:1011200088F80070D8F8000000F00F00B04254D1E9
:1011300028683D4C810712D5400703D5206840F44C
:10114000E05020602878000703D5206840F4604014
:1011500020602068A96820F0F0000843206028780B
:10116000C0072DD0304968680839012812D00228FC
:1011700013D0032811D00968890700292DDA2168C6
:1011800021F0030101432160FFF714FF814641F282
:10119000883A0EE009688903EFE709688901ECE7FE
:1011A000FFF708FFA0EB0901514502D90320BDE874
:1011B000F0872068696800F00C00B0EB810FEFD178
:1011C000D8F80010404601F00F01B14207D907706E
:1011D000006800F00F00B04201D00120E7E7287856
:1011E000400705D52068E96820F4E05008432060F6
:1011F0002878000706D52068296920F4604040EA75
:10120000C100206000F038F82168084AC1F30311DA
:10121000515CC8400649086006480068FFF7F2FEC6
:101220000020C4E7003C024008380240CF310008EB
:101230001C000020140000200448054900680968CB
:10124000044AC1F38221515CC84070471C00002051
:1012500008380240DF310008044805490068096881
:10126000044AC1F34231515CC84070471C00002061
:1012700008380240DF310008154810B5006810F04A
:101280000C02144813D01449042A0FD0082A0ED196
:101290000F4C241F2268236802F03F025B0207D52F
:1012A0002068C0F38810A0FB010106E0084610BDCD
:1012B0002168C1F38811A1FB00010023FEF780FF24
:1012C0002168C1F30141491C4900B0FBF1F010BD98
:1012D000083802400024F40040787D012DE9F84FE1
:1012E00004006ED02078DFF83C93C007A9F1040514
:1012F0004AD009F104000168C1F38101012908D035
:101300000068C0F3810002280AD1D9F80000400229
:1013100006D52868800337D560680028E1D033E01F
:101320006068B0F5803F10D0B0F5A02F286810D0CD
:1013300020F480302860286820F4802028606068CD
:10134000A8B1FFF737FE06460DE0286840F480306C
:10135000F4E740F480202860F7E700BFFFF72AFE9B
:10136000801B642873D828688003F7D50CE0FFF74A
:1013700021FE064605E000BFFFF71CFE801B642827
:10138000F0D828688003F7D42078DFF89C828007A3
:101390004FF0000A3ED5A348001D016811F00C0F64
:1013A00008D00068C0F3810002280BD1D9F80000F2
:1013B000400207D42868800716D5E068012800D1CC
:1013C00012E02BE1E068B8B10120C8F80000FFF797
:1013D000F1FD064605E000BFFFF7ECFD801B02288B
:1013E000C0D828688007F7D52868216920F0F80060
:1013F00040EAC10028600DE0C8F800A0FFF7DAFD60
:10140000064604E0FFF7D6FD801B02281FD8286897
:101410008007F7D42078000722D5824E834861697F
:10142000703671B101210160FFF7C4FD074604E089
:10143000FFF7C0FDC01B022809D830688007F7D528
:101440000EE0C0F800A0FFF7B5FD074605E082E01A
:10145000FFF7B0FDC01B02287DD830688007F7D4A5
:101460002078400768D5DFF8BCB100270BF13C0BB2
:10147000DBF80000C0000BD4DBF8001041F0805115
:10148000CBF80010DBF80000012700F0805000903E
:10149000674E3068C00510D4306840F4807030600A
:1014A000FFF788FD009005E0FFF784FD0099401AE2
:1014B000022850D83068C005F6D55A4EA0686C3660
:1014C00001280FD00528306810D020F001003060CE
:1014D000306820F004003060A068B8B1FFF76AFD02
:1014E00000900FE0306840F00100F4E740F00400A5
:1014F0003060F7E7FFF75EFD0099411A41F288304E
:10150000814266D830688007F4D50EE0FFF752FDBF
:10151000009007E0FFF74EFD0099411A41F2883034
:10152000814256D830688007F4D42FB1DBF8001020
:1015300021F08051CBF80010A069C8B33949091DCA
:101540000968C1F3810102294AD00228504607D018
:10155000C8F8600000E03CE0FFF72CFD04463BE0EB
:101560004746C8F86000FFF725FD064605E000BFC6
:10157000FFF720FD801B02282BD828688001F7D4B4
:10158000D4E907010843A16A2A4A490802EB01414C
:10159000626A41EA8211084394F82C1040EA016122
:1015A000C9F8001001203866FFF704FD044606E084
:1015B00036E000BFFFF7FEFC001B022809D82868B0
:1015C0008001F7D52CE000BFFFF7F4FC001B0228D8
:1015D00002D90320BDE8F88F28688001F4D41FE009
:1015E0000128F7D0D9F80000E26900F480019142A7
:1015F00014D1226A00F03F0191420FD147F6C07129
:10160000626A0140914209D1A26A00F440319142DC
:1016100004D1E16A00F07060884201D00120D9E76E
:101620000020D7E70438024000004742800E4742BE
:10163000007000400000FFFF70B5040005D00025D9
:10164000A56294F8510010B106E0012070BD84F845
:101650005050204600F030F8022084F851002068F5
:10166000016821F040010160D4E901010843D4E997
:1016700003121143084361690843218B01F400718F
:101680000843E1690843216A0843A16A08432168C5
:101690000860A069042101EA1040616A08432168DA
:1016A00048602068C16921F40061C161656501205D
:1016B00084F85100002070BD10B586B00446142196
:1016C0006846FEF7C7FD13492068884220D11248BA
:1016D0000021026842F480520260006800F48050E9
:1016E00005900D481438026842F00102026000685B
:1016F00000F001000590E02000900220CDE90101FA
:10170000032003900520049069460448FFF770FB0E
:1017100006B010BD003001404438024000000240D5
:101720002DE9F84F044640680025984616460F46B6
:101730004FF0040BB0F5827F01D1A06888B194F816
:101740005000012818D0012084F85000FFF732FC27
:10175000814694F851004FF0000A01280ED002256E
:101760007DE084F851B013460A462046CDF800804B
:1017700000F02CF9BDE8F88F0220FBE7002F6DD0B8
:10178000002E6BD084F851B0C4F854A0A763A6878C
:10179000E687C4F830A0A4F834A0A4F836A0C4F8B2
:1017A00040A0C4F844A0A068B0F5004F04D1206860
:1017B000016821F48041016020680168490603D472
:1017C000016841F040010160E068D8B139E020686B
:1017D0008168C90709D0007BA16B0870A06B401C11
:1017E000A063E08F401EE0870CE0FFF7E3FBA0EB77
:1017F0000901414503D3B8F1FF3F03D036E0B8F10A
:10180000000F33D0E08F0028E1D11DE0206881680F
:10181000C90709D0C068A16B0880A06B801CA063B9
:10182000E08F401EE0870CE0FFF7C4FBA0EB09014E
:10183000414503D3B8F1FF3F03D017E0B8F1000FE3
:1018400014D0E08F0028E1D14A464146204600F0FE
:101850008FFC08B120206065606D00B1012501207A
:1018600084F8510084F850A0284683E70325F6E762
:101870002DE9F84F044690F8500000271D46164603
:10188000894601280DD04FF0010B84F850B0FFF7C6
:1018900091FB804694F85100BA46012804D00227F3
:1018A0008EE00220BDE8F88FB9F1000F7DD0002E48
:1018B0007BD0032084F85100C4F854A0C4F83090C1
:1018C000A686E686C4F838A0A4F83CA0A4F83EA0FA
:1018D000C4F844A0C4F840A0A068B0F5004F04D1FB
:1018E0002068016841F48041016020680168490670
:1018F00003D4016841F040010160E068B0F5006F79
:10190000606803D030B3012E24D040E008B1012E2E
:101910001CD1206B21680088C86006E020688168BF
:10192000890709D5216B0988C160206B801C206361
:10193000E08E401EE08609E0FFF73CFBA0EB0800CC
:10194000A84202D3681C01D031E07DB3E08E0028AC
:10195000E4D11FE0206B21680078087306E020685E
:101960008168890709D5216B09780173206B401CB8
:101970002063E08E401EE08609E0FFF71BFBA0EB32
:101980000800A84202D3681C01D010E075B1E08EB7
:101990000028E4D142462946204600F017FC08B151
:1019A00020206065A06820B107E008E0FFE703277A
:1019B00006E02068C16880680090606D00B1012772
:1019C00084F851B084F850A038466BE72DE9F84F01
:1019D000044690F8500000270A9E1D4692468B460A
:1019E0004FF0010901280ED0012084F85000FFF7C4
:1019F000E1FA804694F85100616801280CD0B1F5F5
:101A0000827F07D102E00220BDE8F88FA16809B902
:101A1000042801D00227C2E0BBF1000F27D0BAF1A1
:101A2000000F24D01DB394F85100042802D00520E3
:101A300084F8510000206065C4F838A0E587A587C8
:101A4000C4F830B0E586A58620646064206801682B
:101A5000490603D4016841F040010160E068B0F537
:101A6000006F606805D0E8B3012D46D07FE0012704
:101A700095E008B1012D39D1206B21680088C8603C
:101A8000206B801C2063E08E401EE0862EE02068E4
:101A9000816889070FD5E18E69B1B9F1010F0AD1CB
:101AA000216B0988C160206B801C2063E08E401E82
:101AB000E0864FF0000920688168C9070CD0E18FEB
:101AC00051B1C068A16B0880A06B801CA063E08F3F
:101AD000401EE0874FF00109FFF76CFAA0EB080009
:101AE000B04200E009E001D3701C50D1E08E002824
:101AF000CDD1E08F0028CAD13FE0206B216800786B
:101B00000873206B401C2063E08E401EE0862EE0B0
:101B10002068816889070FD5E18E69B1B9F1010F9D
:101B20000AD1216B09780173206B401C2063E08E81
:101B3000401EE0864FF0000920688168C9070CD07C
:101B4000E18F51B1C068A16B0870A06B401CA0630D
:101B5000E08F401EE0874FF00109FFF72BFAA0EB62
:101B60000800B04202D3701C01D010E07EB1E08EBC
:101B70000028CDD1E08F0028CAD142463146204608
:101B800000F024FB28B101272020606507E003272F
:101B900005E0A06818B92068C1688068009001203D
:101BA00084F85100002084F8500038462CE710B526
:101BB000401EB0F1807F01D3012010BD4FF0E02422
:101BC00060610F21601700F041FD0020A061072037
:101BD0002061002010BD704770B50268044610688F
:101BE000D168536910F00F0F52D003F0010501F4D2
:101BF00090762E435FD0C20705D0CA0503D5E26BAD
:101C000042F00102E263420705D5DA0703D0E26B36
:101C100042F00202E263820705D5DA0703D0E26BE5
:101C200042F00402E263020707D501F020022A43D2
:101C300003D0E26B42F00802E263E26B002A33D089
:101C4000800604D5880602D5204600F0ABFB20684C
:101C50004069E16BC0F38010090700D428B3204627
:101C600000F092FB2068416949061AD5416921F0CC
:101C700040014161606BA0B11B490165606BFFF7DA
:101C800093F8002810D0606B016DBDE870400847E4
:101C9000830610D58B060ED52046BDE8704000F0B7
:101CA00081BB2046FFF797FF70BD2046FFF793FFEB
:101CB0000020E06370BD030606D50B0604D5204660
:101CC000BDE8704000F04EBC4006F3D54806F1D5A3
:101CD000D168204621F04001D160202184F83910DC
:101CE00000F0BDF870BD00007923000870B5040055
:101CF00004D094F83900002510B106E0012070BD31
:101D000084F83850204600F023F8242084F8390065
:101D10002068C16821F40051C160204600F08EFBAC
:101D20002068016921F4904101612068416921F036
:101D30002A0141612068C16841F40051C160E56336
:101D4000202084F8390084F83A00002070BD00009B
:101D500010B586B0044614216846FEF77BFA184990
:101D60002068884229D117480021026842F4802265
:101D70000260006800F48020059012481038026864
:101D800042F002020260006800F0020005904FF489
:101D9000406000900220CDE901010320039007205C
:101DA000049069460848FFF723F8002211462720CF
:101DB000FFF776F92720FFF765F906B010BD0000A0
:101DC00000480040403802400004024090F83A3099
:101DD000202B22D1F9B1F2B190F83830012B1CD070
:101DE00081628285C2850021C163222280F83A2067
:101DF00080F838100168CA6842F48072CA600168CD
:101E00004A6942F001024A610068C16841F020015C
:101E1000C160002070470120704702207047704762
:101E200090F83930202B18D1A9B1A2B190F83830F0
:101E3000012B12D001628284C2840021C16321225D
:101E400080F8392080F838100068C16841F08001BE
:101E5000C160002070470120704702207047704722
:101E6000FEE710B500F033F880212A2000F0B4FB23
:101E7000A9212B2000F0B0FB03212D2000F0ACFBAA
:101E8000E8212C2000F0A8FB4021152000F0A4FB45
:101E90003D21112000F0A0FBBDE81040FEF784BDFD
:101EA0007CB50C46054607210D2000F095FB2570FA
:101EB00001A823460090012219460C2000F00BF8DF
:101EC00018B99DF80410102900D002207CBD0F2104
:101ED000012000F081BB2DE9FF5F00270225DDF81E
:101EE00038A016468B468146B8460C2805D0B9F175
:101EF0000E0F05D11227102001E0772730208046F1
:101F000047F08001022000F067FB80210420FEF7EB
:101F100050FD80210A2000F0D0F90021012000F0BE
:101F20005BFB002405E01BF80410092000F054FBC3
:101F3000641CB442F7D34946012000F04DFBB9F1CF
:101F40000C0F03D180210D2000F0B7F94FF4FA6691
:101F5000042000F0E5F80446761E04D0E00702D124
:101F600014EA080FF4D080210D20FEF722FD36B1CF
:101F7000062000F0D5F810F01B0F04D0022504B0A5
:101F80002846BDE8F09F00253C40E00700D0012531
:101F9000B9F10C0FF3D10A2000F0C2F804460C206E
:101FA00000F0BEF810F0070003D0E1000839084443
:101FB00000E0E0008AF8000024B1102C04D91024BD
:101FC000002603E00124FBE7002605E0092000F0DD
:101FD000A7F803998855761CA642F7D3CFE70000EF
:101FE0007FB5002412480094019402940F49039491
:101FF00001604FF48031C0E90114012504610576C8
:1020000080F820400B49C0E90A14C561C46080F81B
:1020100030404561FEF7A5FD07200094CDE9015051
:1020200069460348FEF7F4FC7FBD00000020014034
:10203000540000200100000FF0B587B0142168465D
:10204000FEF708F923480024016841F0800101608F
:10205000016801F080010591016841F00101016012
:10206000016801F001010591016841F00201016080
:10207000016801F002010591016841F0040101606D
:102080000068154E00F00400059000221021304633
:10209000FEF78AFF114F002201213846FEF784FF28
:1020A000102000900125CDE9015469463046039483
:1020B000FEF79EFE0095CDE901546946384603942B
:1020C000FEF796FE012211463846FEF76DFF07B077
:1020D000F0BD000030380240000002400004024021
:1020E0000C480B494FF4007201604FF4827141605B
:1020F00000218160C1600161C0E905121022C0E9C0
:102100000721416281620A21C162FFF795BA00008E
:10211000003001409C000020FEE770477047704788
:102120007CB57E2101EA400040F080000E4C8DF825
:102130000400002210212046FEF736FF4FF4FA7506
:102140002B46012201A90948FFF792FB2B460122E9
:1021500069460648FFF7E4FA012210212046FEF7FF
:1021600023FF9DF800007CBD000002409C00002081
:10217000F8B5044640684FF48273984221D1A068B4
:102180004FF48065B0F5004F01D0A8420AD1206815
:10219000066826F0400606606068984211D1A06883
:1021A000A8420ED000920B4600228021204600F06B
:1021B00039F8002804D0606D40F0200060650320ED
:1021C000F8BD00920B4600220121EFE738B5044626
:1021D0001248134B0068B0FBF3F04FF47A73584386
:1021E00000906068B0F5827F0DD10B46009200220E
:1021F0008021204600F016F870B1606D40F020009C
:102200006065032038BD009830B1401E0090206802
:102210008068C0430006F6D5002038BD1C000020B1
:1022200000366E012DE9F0411D4617460E46044664
:10223000DDF8188008E0681C06D0FEF7BBFEA0EBB6
:102240000800A8420BD255B12068806836EA000029
:1022500030D00020B842EED10020BDE8F0812068E7
:10226000416821F0E00141606068B0F5827F0BD1E8
:10227000A068B0F5004F02D0B0F5806F04D120689F
:10228000016821F040010160A06AB0F5005F09D14A
:102290002068016821F4005101602068016841F460
:1022A00000510160012084F85100002084F85000A2
:1022B0000320D2E70120CDE7704770B50C460546F4
:1022C000FFF72EFF40EA04012846BDE8704000F009
:1022D00083B9FEF775BE000030B593B03021684673
:1022E000FDF7B8FF14210CA8FDF7B4FF194800252D
:1022F000016841F080510160006800F08050119049
:102300001548016841F4804101600068022400F42E
:1023100080401190012003901020049000940694B6
:102320000820CDE90750A020CDE9090404200B9036
:102330006846FEF7D3FF0CA90F2081E831004FF467
:10234000A0500F90E002109005210CA8FEF7DAFED5
:1023500013B030BD403802400070004005480168AD
:1023600041F47001016003494FF00060803908605A
:102370007047000088ED00E010B5806B0021C1853A
:10238000C184FFF728FC10BD0168CA6822F490726E
:10239000CA6001684A6922F001024A61202180F87E
:1023A0003A10704710B590F83A10222901D0022057
:1023B00010BD8168B1F5805F11D001690029016805
:1023C0001FD0496801F07F03816A4A1C82620B704A
:1023D000C18D491E0904090CC18518D02BE0026982
:1023E000816A002A0268526805D0D2B20A80816AE6
:1023F000491C8162ECE7C2F308020A80816A891CE9
:10240000F7E74A68816A4B1C83620A70E0E701685B
:10241000CA6822F02002CA600168CA6822F4807289
:10242000CA6001684A6922F001024A61202180F8ED
:102430003A10FFF7F4FC002010BD00002DE9F04138
:10244000044600680169E26821F4405111430161CA
:102450002169A068E2690843616911430843216862
:10246000CA6849F20C639A430243CA602068416912
:10247000A26921F4407111434161E0691927642583
:102480003226B0F5004F354A354920684FF0000834
:1024900006D0884201D0904236D1FEF7DDFE35E00D
:1024A000884201D0904202D1FEF7D6FE01E0FEF74D
:1024B000C3FE61684A18A0FB070148EB0803FDF75B
:1024C0007FFE0146B0FBF5F00201B1FBF5F06FF0C5
:1024D0001803584301EB800006EBC000B0FBF5F099
:1024E00000F0F80002EB4002B1FBF5F0584301EBBD
:1024F000800006EBC000B0FBF5F000F0070021689B
:1025000010448860BDE8F081FEF796FE61688B0F8D
:102510008A00A0FB0701FDF753FE0146B0FBF5F072
:102520006FF01802504301EB800006EB0010B0FB87
:10253000F5F000F0F002B1FBF5F002EB0012B1FB98
:10254000F5F06FF01803584301EB800006EB001024
:10255000B0FBF5F000F00F00D1E7000000140140DF
:102560000010014090F83910212901D00220704755
:102570008168B1F5805F016A0BD04A1C0262026873
:1025800009785160C18C491E0904090CC1840ED020
:1025900017E009880268C1F3080151600169002948
:1025A000016A02D0491C0162ECE7891CFBE7016863
:1025B000CA6822F08002CA600068C16841F0400128
:1025C000C1600020704700000148FFF705BB000014
:1025D000F4000020FEE7000033B57E2181B001EA5F
:1025E00040000E4C8DF80000002210212046FEF71E
:1025F000DBFC4FF4FA752B46012269460848FFF7C9
:1026000037F92B46012202A90548FFF731F90122CB
:1026100010212046FEF7C8FC3EBD0000000002402D
:102620009C0000200FB4084B10B504A902AA03981F
:1026300000F0EEF8044602A9002000F080FC2046DD
:1026400010BC5DF814FB00003F2F00080907090EBD
:10265000002804DB00F1E02080F80014704700F04F
:102660000F0000F1E02080F8141D704702E008C858
:10267000121F08C1002AFAD170477047002001E0FC
:1026800001C1121F002AFBD1704700002DE9FF5F36
:1026900082B00021DDE90430020DDDF840B00343D3
:1026A00018D044F61050A2F2FF324243151411988C
:1026B00001281FD0A5EB0B00401C5FEA000A4FF079
:1026C00000064E4FDFF83891B046504615D5CAF196
:1026D000000413E0119801244AA3012801D16FEAF4
:1026E0000B010298119AC0E90031C0E9024206B01C
:1026F000BDE8F09FCBF10000DFE704460021404A2F
:10270000491842EB0450CDE9001012E0E00707D071
:1027100032463B4640464946FDF7AEFD8046894677
:1027200032463B4610461946FDF7A6FD06460F46C3
:102730006410002CEAD1DDE90401DDE90023BAF1DF
:10274000000F06DAFDF798FD42464B46FDF794FD73
:1027500005E0FDF7AFFF42464B46FDF7ABFF0446F1
:102760000E460022284BFEF72DF803D84FF0FF301D
:10277000014607E00022254B20463146FDF7F3FED7
:10278000FEF707F8102409E0002C0ADB0A220023D8
:10279000FDF716FD039B30321A55641E50EA010204
:1027A000F2D1641C039AC4F111031444119A012A52
:1027B00003D0012208430DD10AE0084304D00020D1
:1027C0004FF0110B119072E7A3EB0B056D1E0DE09E
:1027D0005B4504DD4FF0000205F1010504E003DA7A
:1027E0004FF00002A5F10105002AECD002981199E2
:1027F000C0E90231C0E9004579E70000000014405B
:102800000000F03F300000000000F0430000E03F17
:102810002DE9FF4F95B09B468946064600250FE2FD
:10282000252877D100242746F84A0121059400E0A5
:10283000044316F8013F203B01FA03F01042F7D1A0
:1028400030782A2811D06FF02F033078A0F13002B1
:10285000092A16D8059A44F0020402EB820203EB1F
:1028600042021044761C0590EFE759F8042B0592BC
:10287000002A03DA504244F40054059044F0020464
:10288000761C30782E2816D116F8010F44F0040477
:102890002A280DD06FF02F023078A0F13003092BD9
:1028A00009D807EB870302EB4303C718761CF3E74D
:1028B00059F8047B761C30786C280FD006DC4C2845
:1028C00017D068280DD06A2814D104E0742810D0DD
:1028D0007A280FD10DE044F400140AE044F4801487
:1028E00001E044F440147278824202D104F580146D
:1028F000761C761C307866280BD013DC582877D0ED
:1029000009DC002875D04528F6D04628F4D04728A1
:102910001AD19DE118E0632835D0642879D0652864
:1029200012D195E1702873D008DC6728F1D06928AE
:102930006FD06E280DD06F2806D1B5E073282CD04B
:10294000752875D0782874D05A46179990476D1C11
:1029500075E1C4F30250022809D003280DD0D9F83C
:10296000001004280DD00D6009F1040967E1D9F8C1
:102970000010EA17C1E90052F6E7D9F800100D80FF
:10298000F2E70D70F0E719F8041B8DF80010002035
:102990008DF80100EA46012003E059F804AB4FF03E
:1029A000FF3061074FF0000102D40DE008F1010192
:1029B0008846B9420FDA8045F8DB1AF8081000297A
:1029C000F4D108E008F1010188468142FADB1AF8E7
:1029D00008100029F6D105985B46A0EB08072146B0
:1029E0003846179A00F094FA284400EB080507E0EF
:1029F0004DE029E10DE01AF8010B5A46179990476E
:102A0000B8F10108F7D25B4621463846179A13E120
:102A100042E00A220092C4F302524FF0000A022A56
:102A200008D059F804CB032A4FEAEC710AD00DE024
:102A300029E02AE009F1070121F00702F2E802C1CA
:102A4000914609E00FFA8CFC4FEAEC71042A03D19D
:102A50004FFA8CFC4FEAEC71002907DA0A46002194
:102A6000DCF1000C61EB02012D2202E0220504D50D
:102A70002B228DF80420012203E0E20701D020225E
:102A8000F7E7904659E00A2102E010220DE01021FC
:102A90004FF0000A00910BE010224FF0000A44F0C2
:102AA00004040827009203E008224FF0000A009275
:102AB000C4F30252022A05D059F804CB0021032A9C
:102AC00008D009E009F1070121F00702F2E802C18C
:102AD000914605E01FFA8CFC042A01D10CF0FF0C92
:102AE0004FF00008220728D5702806D0009B83F0FD
:102AF000100353EA0A0305D00EE040228DF80420AB
:102B0000012208E05CEA010206D030228DF80420A0
:102B10008DF8050002229046009B83F0080353EADB
:102B20000A030AD15CEA010201D1620705D530220D
:102B30008DF804204FF001087F1E582804D034A0DF
:102B400003900EA802900DE036A0F9E753466046C8
:102B5000009AFDF735FB84460398825C0298401E7C
:102B6000029002705CEA0100F0D1029806A9081AEE
:102B700000F1200A600702D524F4803400E0012728
:102B8000574502DDA7EB0A0000E0002000EB0A0138
:102B9000009005984144401A0590E00306D45B4636
:102BA0002146179A059800F0B3F90544002706E07E
:102BB00001A85A46C05D179990476D1C7F1C474578
:102BC000F6DBE0030CD55B462146179A059800F02A
:102BD0009FF9054404E030205A46179990476D1C30
:102BE0000099481E00900029F5DC08E0029802993F
:102BF0005A460078491C0291179990476D1CBAF10A
:102C00000001AAF1010AF1DC65E1000009280100D8
:102C10003031323334353637383961626364656652
:102C20000000000030313233343536373839414214
:102C3000434445460000000000F058F90544761C66
:102C4000307800287FF4ECAD19B02846BDE8F08F4D
:102C5000620700D4062709F1070222F0070CFCE8FE
:102C60000223E14603F000485FEA080C02D00FF2AD
:102C7000702C0DE05FEA045C02D50FF2682C07E0CF
:102C80005FEAC47C02D00FF2602C01E0AFF2700C5E
:102C90004FF0FF3823F00043CDF850C065280CD02A
:102CA00006DC452809D046281DD047283DD13DE007
:102CB000662818D067287ED138E00021112F01DB6B
:102CC000112000E0781CCDE9000106A90EA8FFF74D
:102CD000DDFCDDE90F010E9A03910021009207F15E
:102CE000010A04914DE04FF000400097CDE901103A
:102CF00006A90EA8FFF7CAFCDDE90F0203920E9B9E
:102D000011990022DDF80CA00093049211B9791CEE
:102D100000EB010AB7EB0A0004D4C0F1FF3007F161
:102D2000010A0490AAEB0700019044E0012F00DAA9
:102D300001270021112F01DD112000E03846CDE9E7
:102D4000000106A90EA8FFF7A1FCDDE90F010E9A0C
:102D50000391002104910092BA4621070CD40399F3
:102D6000514500DA8A46BAF1010F05DD009AAAF151
:102D70000101515C302908D0B84202DA10F1040F89
:102D800006DA0121CDE9011015E0AAF10101E9E718
:102D9000002805DC049901440491AAEB000102E03B
:102DA000411C514500DD8A460499401A401C01909F
:102DB0004FF000400290200704D40198504501DBF9
:102DC000CDF8048000208DF84F0002980DF14F07D8
:102DD000B0F1004F25D02B200E9002984FF0020842
:102DE00000280CDA404202902D200E9007E00A21C4
:102DF0000298FDF7EFFA3031029007F8011DB8F1A3
:102E00000001A8F10108F2DC02980028EFD1791E38
:102E10000E980870307800F0200040F0450007F868
:102E2000020D12A8C01B00F107081498007800B129
:102E3000012000EB0A01019801EBE0710598414483
:102E4000401A401E0590E00306D45B462146179ABF
:102E5000059800F05DF805441498007818B15A46BA
:102E6000179990476D1CE00324D55B462146179ABD
:102E7000059800F04DF805441CE00498002807DB95
:102E8000DDE90301884203DD0098405C179901E009
:102E9000179930205A469047049805F10105401CC7
:102EA00004900198401E019004D12E205A46179993
:102EB00090476D1CBAF10001AAF1010ADDDC05E0C2
:102EC00017F8010B5A46179990476D1CB8F100018D
:102ED000A8F10108F4DC5B462146179A0598ABE699
:102EE0002D0000002B000000200000002DE9F04123
:102EF000044600251E461746880404D405E03946DA
:102F00002020B0476D1C641EF9D52846BDE8F0812D
:102F10002DE9F041044600251E469046C80301D520
:102F2000302700E02027880404D505E041463846D4
:102F3000B0476D1C641EF9D52846BDE8F0810A68CB
:102F4000531C0B601070704710B5002821D0114B36
:102F50000022001F196803E0814203D80A4649682D
:102F60000029F9D152B11368841A9C4204D1006837
:102F700018441060104602E0506000E0186039B15B
:102F800002680B1A934203D10B681A440260496825
:102F9000416010BD200000208EB0FEF719F8FFF749
:102FA0009BF9FFF749F8FFF71BF83D483B4900251F
:102FB00001604FF41651C0E901150C21C560C0E94C
:102FC00004518561C561FEF791FEFFF789F8FEF7B0
:102FD00048FF4FF47A742046FDF7F8FC242231496B
:102FE0006846FDF71EF93720FFF79AF8C6B22C485D
:102FF0002DA1CC38FFF716FB294832462EA1BB384D
:10300000FFF710FBA0462E4C5FF00106FDF7AAFC6F
:10301000E068FDF7B0F941EC100B214853EC102BA0
:1030200028A1AA38FFF7FEFA1D48AA38FDF71DF9B6
:10303000074600F04DF8814601461948AA3800F0CD
:103040007DF8BAB249461648FEF7EAFE4046FDF75B
:10305000BDFE09A92620FEF723FF18B1E07801285C
:1030600001D017E0E6701949E068884200DB26705D
:1030700013490122091D0A48FEF7A8FE207961289C
:1030800002D0622802D003E0667000E0A6702571CD
:1030900000F060F84846FFF757FFB7E700480040E8
:1030A000F4000020AC31000852756E6E696E672026
:1030B00052433532320000007665723A25780000BE
:1030C00000000020252E32662043000000007042E0
:1030D000F0B50B30154D20F007010024144A0FE025
:1030E00003688B420BD38B4205D95E1A431847689D
:1030F000C3E9006700E04368136002C004E0021DFA
:1031000010680028ECD12046002802D1286808B1B8
:103110000020F0BD064A07481060074A121A22F044
:103120000702C0E9002401202860D7E7240000201E
:10313000200000203C0100203803002010B50022B0
:10314000134602E0CC54521C5B1C845C002CF9D169
:1031500010BD000070B5134C134E0025207870B1DF
:10316000002201213046FDF71FFF41F28830FDF7B4
:103170002DFE012211463046FDF716FF25706078BE
:1031800028B1002201213046FDF70EFF6570A078BE
:10319000002805D0012211463046FDF705FFA57035
:1031A00070BD000000000020000402401245F2A89B
:1031B00000B26C39830055E5DA18001F09CA7500A2
:1031C00099A250EC002C887F3D0000000000000018
:1031D00000000000000000010203040607080900C7
:1031E0000000000102030400083200080000002073
:1031F000280000006C26000830320008280000205B
:10320000100700007C2600080000000000000000FD
:10321000000000000000000001000000100000009D
:10322000000000000024F400000000000000000086
:040000050800018965
:00000001FF
